{
  "_format": "hh-sol-artifact-1",
  "contractName": "StitchiesCollection",
  "sourceName": "contracts/StitchiesCollection.sol",
  "abi": [
    {
      "inputs": [
        {
          "internalType": "string",
          "name": "_initBaseURI",
          "type": "string"
        },
        {
          "internalType": "string",
          "name": "_initNotRevealedUri",
          "type": "string"
        }
      ],
      "stateMutability": "nonpayable",
      "type": "constructor"
    },
    {
      "inputs": [],
      "name": "ApprovalCallerNotOwnerNorApproved",
      "type": "error"
    },
    {
      "inputs": [],
      "name": "ApprovalQueryForNonexistentToken",
      "type": "error"
    },
    {
      "inputs": [],
      "name": "ApprovalToCurrentOwner",
      "type": "error"
    },
    {
      "inputs": [],
      "name": "ApproveToCaller",
      "type": "error"
    },
    {
      "inputs": [],
      "name": "BalanceQueryForZeroAddress",
      "type": "error"
    },
    {
      "inputs": [],
      "name": "MintToZeroAddress",
      "type": "error"
    },
    {
      "inputs": [],
      "name": "MintZeroQuantity",
      "type": "error"
    },
    {
      "inputs": [],
      "name": "OwnerQueryForNonexistentToken",
      "type": "error"
    },
    {
      "inputs": [],
      "name": "TransferCallerNotOwnerNorApproved",
      "type": "error"
    },
    {
      "inputs": [],
      "name": "TransferFromIncorrectOwner",
      "type": "error"
    },
    {
      "inputs": [],
      "name": "TransferToNonERC721ReceiverImplementer",
      "type": "error"
    },
    {
      "inputs": [],
      "name": "TransferToZeroAddress",
      "type": "error"
    },
    {
      "inputs": [],
      "name": "URIQueryForNonexistentToken",
      "type": "error"
    },
    {
      "anonymous": false,
      "inputs": [
        {
          "indexed": true,
          "internalType": "address",
          "name": "owner",
          "type": "address"
        },
        {
          "indexed": true,
          "internalType": "address",
          "name": "approved",
          "type": "address"
        },
        {
          "indexed": true,
          "internalType": "uint256",
          "name": "tokenId",
          "type": "uint256"
        }
      ],
      "name": "Approval",
      "type": "event"
    },
    {
      "anonymous": false,
      "inputs": [
        {
          "indexed": true,
          "internalType": "address",
          "name": "owner",
          "type": "address"
        },
        {
          "indexed": true,
          "internalType": "address",
          "name": "operator",
          "type": "address"
        },
        {
          "indexed": false,
          "internalType": "bool",
          "name": "approved",
          "type": "bool"
        }
      ],
      "name": "ApprovalForAll",
      "type": "event"
    },
    {
      "anonymous": false,
      "inputs": [
        {
          "indexed": true,
          "internalType": "address",
          "name": "previousOwner",
          "type": "address"
        },
        {
          "indexed": true,
          "internalType": "address",
          "name": "newOwner",
          "type": "address"
        }
      ],
      "name": "OwnershipTransferred",
      "type": "event"
    },
    {
      "anonymous": false,
      "inputs": [
        {
          "indexed": false,
          "internalType": "address",
          "name": "account",
          "type": "address"
        }
      ],
      "name": "Paused",
      "type": "event"
    },
    {
      "anonymous": false,
      "inputs": [
        {
          "indexed": true,
          "internalType": "address",
          "name": "from",
          "type": "address"
        },
        {
          "indexed": true,
          "internalType": "address",
          "name": "to",
          "type": "address"
        },
        {
          "indexed": true,
          "internalType": "uint256",
          "name": "tokenId",
          "type": "uint256"
        }
      ],
      "name": "Transfer",
      "type": "event"
    },
    {
      "anonymous": false,
      "inputs": [
        {
          "indexed": false,
          "internalType": "address",
          "name": "account",
          "type": "address"
        }
      ],
      "name": "Unpaused",
      "type": "event"
    },
    {
      "inputs": [
        {
          "internalType": "address",
          "name": "to",
          "type": "address"
        },
        {
          "internalType": "uint256",
          "name": "tokenId",
          "type": "uint256"
        }
      ],
      "name": "approve",
      "outputs": [],
      "stateMutability": "nonpayable",
      "type": "function"
    },
    {
      "inputs": [
        {
          "internalType": "address",
          "name": "owner",
          "type": "address"
        }
      ],
      "name": "balanceOf",
      "outputs": [
        {
          "internalType": "uint256",
          "name": "",
          "type": "uint256"
        }
      ],
      "stateMutability": "view",
      "type": "function"
    },
    {
      "inputs": [],
      "name": "baseExtension",
      "outputs": [
        {
          "internalType": "string",
          "name": "",
          "type": "string"
        }
      ],
      "stateMutability": "view",
      "type": "function"
    },
    {
      "inputs": [
        {
          "internalType": "uint256",
          "name": "tokenId",
          "type": "uint256"
        }
      ],
      "name": "getApproved",
      "outputs": [
        {
          "internalType": "address",
          "name": "",
          "type": "address"
        }
      ],
      "stateMutability": "view",
      "type": "function"
    },
    {
      "inputs": [
        {
          "internalType": "address",
          "name": "owner",
          "type": "address"
        },
        {
          "internalType": "address",
          "name": "operator",
          "type": "address"
        }
      ],
      "name": "isApprovedForAll",
      "outputs": [
        {
          "internalType": "bool",
          "name": "",
          "type": "bool"
        }
      ],
      "stateMutability": "view",
      "type": "function"
    },
    {
      "inputs": [],
      "name": "isMintEnabled",
      "outputs": [
        {
          "internalType": "bool",
          "name": "",
          "type": "bool"
        }
      ],
      "stateMutability": "view",
      "type": "function"
    },
    {
      "inputs": [],
      "name": "maxMint",
      "outputs": [
        {
          "internalType": "uint256",
          "name": "",
          "type": "uint256"
        }
      ],
      "stateMutability": "view",
      "type": "function"
    },
    {
      "inputs": [],
      "name": "maxSupply",
      "outputs": [
        {
          "internalType": "uint256",
          "name": "",
          "type": "uint256"
        }
      ],
      "stateMutability": "view",
      "type": "function"
    },
    {
      "inputs": [
        {
          "internalType": "uint256",
          "name": "_quantity",
          "type": "uint256"
        }
      ],
      "name": "mint",
      "outputs": [],
      "stateMutability": "payable",
      "type": "function"
    },
    {
      "inputs": [],
      "name": "mintPrice",
      "outputs": [
        {
          "internalType": "uint256",
          "name": "",
          "type": "uint256"
        }
      ],
      "stateMutability": "view",
      "type": "function"
    },
    {
      "inputs": [],
      "name": "name",
      "outputs": [
        {
          "internalType": "string",
          "name": "",
          "type": "string"
        }
      ],
      "stateMutability": "view",
      "type": "function"
    },
    {
      "inputs": [],
      "name": "notRevealedUri",
      "outputs": [
        {
          "internalType": "string",
          "name": "",
          "type": "string"
        }
      ],
      "stateMutability": "view",
      "type": "function"
    },
    {
      "inputs": [],
      "name": "owner",
      "outputs": [
        {
          "internalType": "address",
          "name": "",
          "type": "address"
        }
      ],
      "stateMutability": "view",
      "type": "function"
    },
    {
      "inputs": [
        {
          "internalType": "uint256",
          "name": "tokenId",
          "type": "uint256"
        }
      ],
      "name": "ownerOf",
      "outputs": [
        {
          "internalType": "address",
          "name": "",
          "type": "address"
        }
      ],
      "stateMutability": "view",
      "type": "function"
    },
    {
      "inputs": [],
      "name": "pause",
      "outputs": [],
      "stateMutability": "nonpayable",
      "type": "function"
    },
    {
      "inputs": [],
      "name": "paused",
      "outputs": [
        {
          "internalType": "bool",
          "name": "",
          "type": "bool"
        }
      ],
      "stateMutability": "view",
      "type": "function"
    },
    {
      "inputs": [],
      "name": "renounceOwnership",
      "outputs": [],
      "stateMutability": "nonpayable",
      "type": "function"
    },
    {
      "inputs": [],
      "name": "reveal",
      "outputs": [],
      "stateMutability": "nonpayable",
      "type": "function"
    },
    {
      "inputs": [],
      "name": "revealed",
      "outputs": [
        {
          "internalType": "bool",
          "name": "",
          "type": "bool"
        }
      ],
      "stateMutability": "view",
      "type": "function"
    },
    {
      "inputs": [
        {
          "internalType": "address",
          "name": "from",
          "type": "address"
        },
        {
          "internalType": "address",
          "name": "to",
          "type": "address"
        },
        {
          "internalType": "uint256",
          "name": "tokenId",
          "type": "uint256"
        }
      ],
      "name": "safeTransferFrom",
      "outputs": [],
      "stateMutability": "nonpayable",
      "type": "function"
    },
    {
      "inputs": [
        {
          "internalType": "address",
          "name": "from",
          "type": "address"
        },
        {
          "internalType": "address",
          "name": "to",
          "type": "address"
        },
        {
          "internalType": "uint256",
          "name": "tokenId",
          "type": "uint256"
        },
        {
          "internalType": "bytes",
          "name": "_data",
          "type": "bytes"
        }
      ],
      "name": "safeTransferFrom",
      "outputs": [],
      "stateMutability": "nonpayable",
      "type": "function"
    },
    {
      "inputs": [
        {
          "internalType": "address",
          "name": "operator",
          "type": "address"
        },
        {
          "internalType": "bool",
          "name": "approved",
          "type": "bool"
        }
      ],
      "name": "setApprovalForAll",
      "outputs": [],
      "stateMutability": "nonpayable",
      "type": "function"
    },
    {
      "inputs": [
        {
          "internalType": "string",
          "name": "_newBaseExtension",
          "type": "string"
        }
      ],
      "name": "setBaseExtension",
      "outputs": [],
      "stateMutability": "nonpayable",
      "type": "function"
    },
    {
      "inputs": [
        {
          "internalType": "string",
          "name": "_newBaseURI",
          "type": "string"
        }
      ],
      "name": "setBaseURI",
      "outputs": [],
      "stateMutability": "nonpayable",
      "type": "function"
    },
    {
      "inputs": [
        {
          "internalType": "string",
          "name": "_notRevealedURI",
          "type": "string"
        }
      ],
      "name": "setNotRevealedURI",
      "outputs": [],
      "stateMutability": "nonpayable",
      "type": "function"
    },
    {
      "inputs": [
        {
          "internalType": "uint256",
          "name": "_mintPrice",
          "type": "uint256"
        }
      ],
      "name": "setPrice",
      "outputs": [],
      "stateMutability": "nonpayable",
      "type": "function"
    },
    {
      "inputs": [
        {
          "internalType": "uint256",
          "name": "_maxMint",
          "type": "uint256"
        }
      ],
      "name": "setmaxMintAmount",
      "outputs": [],
      "stateMutability": "nonpayable",
      "type": "function"
    },
    {
      "inputs": [
        {
          "internalType": "bytes4",
          "name": "interfaceId",
          "type": "bytes4"
        }
      ],
      "name": "supportsInterface",
      "outputs": [
        {
          "internalType": "bool",
          "name": "",
          "type": "bool"
        }
      ],
      "stateMutability": "view",
      "type": "function"
    },
    {
      "inputs": [],
      "name": "symbol",
      "outputs": [
        {
          "internalType": "string",
          "name": "",
          "type": "string"
        }
      ],
      "stateMutability": "view",
      "type": "function"
    },
    {
      "inputs": [],
      "name": "togglePublicMint",
      "outputs": [],
      "stateMutability": "nonpayable",
      "type": "function"
    },
    {
      "inputs": [
        {
          "internalType": "uint256",
          "name": "tokenId",
          "type": "uint256"
        }
      ],
      "name": "tokenURI",
      "outputs": [
        {
          "internalType": "string",
          "name": "",
          "type": "string"
        }
      ],
      "stateMutability": "view",
      "type": "function"
    },
    {
      "inputs": [],
      "name": "totalSupply",
      "outputs": [
        {
          "internalType": "uint256",
          "name": "",
          "type": "uint256"
        }
      ],
      "stateMutability": "view",
      "type": "function"
    },
    {
      "inputs": [
        {
          "internalType": "address",
          "name": "from",
          "type": "address"
        },
        {
          "internalType": "address",
          "name": "to",
          "type": "address"
        },
        {
          "internalType": "uint256",
          "name": "tokenId",
          "type": "uint256"
        }
      ],
      "name": "transferFrom",
      "outputs": [],
      "stateMutability": "nonpayable",
      "type": "function"
    },
    {
      "inputs": [
        {
          "internalType": "address",
          "name": "newOwner",
          "type": "address"
        }
      ],
      "name": "transferOwnership",
      "outputs": [],
      "stateMutability": "nonpayable",
      "type": "function"
    },
    {
      "inputs": [],
      "name": "unpause",
      "outputs": [],
      "stateMutability": "nonpayable",
      "type": "function"
    },
    {
      "inputs": [],
      "name": "withdraw",
      "outputs": [],
      "stateMutability": "nonpayable",
      "type": "function"
    }
  ],
  "bytecode": "0x60806040526032600b556004600c55662386f26fc10000600d556040518060400160405280600581526020017f2e6a736f6e000000000000000000000000000000000000000000000000000000815250600f9080519060200190620000669291906200044a565b506000601160006101000a81548160ff0219169083151502179055506000601160016101000a81548160ff021916908315150217905550348015620000aa57600080fd5b506040516200408b3803806200408b8339818101604052810190620000d091906200056c565b6040518060400160405280601481526020017f53746974636869657320436f6c6c656374696f6e0000000000000000000000008152506040518060400160405280600381526020017f53544900000000000000000000000000000000000000000000000000000000008152508160029080519060200190620001549291906200044a565b5080600390805190602001906200016d9291906200044a565b506200017e620001f360201b60201c565b6000819055505050620001a66200019a620001fc60201b60201c565b6200020460201b60201c565b60016009819055506000600a60006101000a81548160ff021916908315150217905550620001da82620002ca60201b60201c565b620001eb816200037560201b60201c565b5050620007d2565b60006001905090565b600033905090565b6000600860009054906101000a900473ffffffffffffffffffffffffffffffffffffffff16905081600860006101000a81548173ffffffffffffffffffffffffffffffffffffffff021916908373ffffffffffffffffffffffffffffffffffffffff1602179055508173ffffffffffffffffffffffffffffffffffffffff168173ffffffffffffffffffffffffffffffffffffffff167f8be0079c531659141344cd1fd0a4f28419497f9722a3daafe3b4186f6b6457e060405160405180910390a35050565b620002da620001fc60201b60201c565b73ffffffffffffffffffffffffffffffffffffffff16620003006200042060201b60201c565b73ffffffffffffffffffffffffffffffffffffffff161462000359576040517f08c379a0000000000000000000000000000000000000000000000000000000008152600401620003509062000606565b60405180910390fd5b80600e9080519060200190620003719291906200044a565b5050565b62000385620001fc60201b60201c565b73ffffffffffffffffffffffffffffffffffffffff16620003ab6200042060201b60201c565b73ffffffffffffffffffffffffffffffffffffffff161462000404576040517f08c379a0000000000000000000000000000000000000000000000000000000008152600401620003fb9062000606565b60405180910390fd5b80601090805190602001906200041c9291906200044a565b5050565b6000600860009054906101000a900473ffffffffffffffffffffffffffffffffffffffff16905090565b8280546200045890620006ce565b90600052602060002090601f0160209004810192826200047c5760008555620004c8565b82601f106200049757805160ff1916838001178555620004c8565b82800160010185558215620004c8579182015b82811115620004c7578251825591602001919060010190620004aa565b5b509050620004d79190620004db565b5090565b5b80821115620004f6576000816000905550600101620004dc565b5090565b6000620005116200050b8462000651565b62000628565b9050828152602081018484840111156200052a57600080fd5b6200053784828562000698565b509392505050565b600082601f8301126200055157600080fd5b815162000563848260208601620004fa565b91505092915050565b600080604083850312156200058057600080fd5b600083015167ffffffffffffffff8111156200059b57600080fd5b620005a9858286016200053f565b925050602083015167ffffffffffffffff811115620005c757600080fd5b620005d5858286016200053f565b9150509250929050565b6000620005ee60208362000687565b9150620005fb82620007a9565b602082019050919050565b600060208201905081810360008301526200062181620005df565b9050919050565b60006200063462000647565b905062000642828262000704565b919050565b6000604051905090565b600067ffffffffffffffff8211156200066f576200066e62000769565b5b6200067a8262000798565b9050602081019050919050565b600082825260208201905092915050565b60005b83811015620006b85780820151818401526020810190506200069b565b83811115620006c8576000848401525b50505050565b60006002820490506001821680620006e757607f821691505b60208210811415620006fe57620006fd6200073a565b5b50919050565b6200070f8262000798565b810181811067ffffffffffffffff8211171562000731576200073062000769565b5b80604052505050565b7f4e487b7100000000000000000000000000000000000000000000000000000000600052602260045260246000fd5b7f4e487b7100000000000000000000000000000000000000000000000000000000600052604160045260246000fd5b6000601f19601f8301169050919050565b7f4f776e61626c653a2063616c6c6572206973206e6f7420746865206f776e6572600082015250565b6138a980620007e26000396000f3fe60806040526004361061020f5760003560e01c8063715018a611610118578063a475b5dd116100a0578063d5abeb011161006f578063d5abeb011461070c578063da3ef23f14610737578063e985e9c514610760578063f2c4ce1e1461079d578063f2fde38b146107c65761020f565b8063a475b5dd14610664578063b88d4fde1461067b578063c6682862146106a4578063c87b56dd146106cf5761020f565b80638da5cb5b116100e75780638da5cb5b146105a057806391b7f5ed146105cb57806395d89b41146105f4578063a0712d681461061f578063a22cb4651461063b5761020f565b8063715018a61461051e5780637501f741146105355780637f00c7a6146105605780638456cb59146105895761020f565b80633f4ba83a1161019b57806355f804b31161016a57806355f804b3146104255780635c975abb1461044e5780636352211e146104795780636817c76c146104b657806370a08231146104e15761020f565b80633f4ba83a146103a35780634047638d146103ba57806342842e0e146103d157806351830227146103fa5761020f565b8063095ea7b3116101e2578063095ea7b3146102e457806318160ddd1461030d57806323b872dd14610338578063346de50a146103615780633ccfd60b1461038c5761020f565b806301ffc9a71461021457806306fdde0314610251578063081812fc1461027c578063081c8c44146102b9575b600080fd5b34801561022057600080fd5b5061023b60048036038101906102369190612c9a565b6107ef565b60405161024891906130be565b60405180910390f35b34801561025d57600080fd5b50610266610881565b60405161027391906130d9565b60405180910390f35b34801561028857600080fd5b506102a3600480360381019061029e9190612d2d565b610913565b6040516102b09190613057565b60405180910390f35b3480156102c557600080fd5b506102ce61098f565b6040516102db91906130d9565b60405180910390f35b3480156102f057600080fd5b5061030b60048036038101906103069190612c5e565b610a1d565b005b34801561031957600080fd5b50610322610bc4565b60405161032f919061325b565b60405180910390f35b34801561034457600080fd5b5061035f600480360381019061035a9190612b58565b610bdb565b005b34801561036d57600080fd5b50610376610beb565b60405161038391906130be565b60405180910390f35b34801561039857600080fd5b506103a1610bfe565b005b3480156103af57600080fd5b506103b8610d20565b005b3480156103c657600080fd5b506103cf610da6565b005b3480156103dd57600080fd5b506103f860048036038101906103f39190612b58565b610e4e565b005b34801561040657600080fd5b5061040f610e6e565b60405161041c91906130be565b60405180910390f35b34801561043157600080fd5b5061044c60048036038101906104479190612cec565b610e81565b005b34801561045a57600080fd5b50610463610f17565b60405161047091906130be565b60405180910390f35b34801561048557600080fd5b506104a0600480360381019061049b9190612d2d565b610f2e565b6040516104ad9190613057565b60405180910390f35b3480156104c257600080fd5b506104cb610f40565b6040516104d8919061325b565b60405180910390f35b3480156104ed57600080fd5b5061050860048036038101906105039190612af3565b610f46565b604051610515919061325b565b60405180910390f35b34801561052a57600080fd5b50610533610fdb565b005b34801561054157600080fd5b5061054a611063565b604051610557919061325b565b60405180910390f35b34801561056c57600080fd5b5061058760048036038101906105829190612d2d565b611069565b005b34801561059557600080fd5b5061059e6110ef565b005b3480156105ac57600080fd5b506105b5611175565b6040516105c29190613057565b60405180910390f35b3480156105d757600080fd5b506105f260048036038101906105ed9190612d2d565b61119f565b005b34801561060057600080fd5b50610609611225565b60405161061691906130d9565b60405180910390f35b61063960048036038101906106349190612d2d565b6112b7565b005b34801561064757600080fd5b50610662600480360381019061065d9190612c22565b6115ab565b005b34801561067057600080fd5b50610679611723565b005b34801561068757600080fd5b506106a2600480360381019061069d9190612ba7565b6117cb565b005b3480156106b057600080fd5b506106b961183e565b6040516106c691906130d9565b60405180910390f35b3480156106db57600080fd5b506106f660048036038101906106f19190612d2d565b6118cc565b60405161070391906130d9565b60405180910390f35b34801561071857600080fd5b50610721611a25565b60405161072e919061325b565b60405180910390f35b34801561074357600080fd5b5061075e60048036038101906107599190612cec565b611a2b565b005b34801561076c57600080fd5b5061078760048036038101906107829190612b1c565b611ac1565b60405161079491906130be565b60405180910390f35b3480156107a957600080fd5b506107c460048036038101906107bf9190612cec565b611b55565b005b3480156107d257600080fd5b506107ed60048036038101906107e89190612af3565b611beb565b005b60006301ffc9a760e01b827bffffffffffffffffffffffffffffffffffffffffffffffffffffffff1916148061084a57506380ac58cd60e01b827bffffffffffffffffffffffffffffffffffffffffffffffffffffffff1916145b8061087a5750635b5e139f60e01b827bffffffffffffffffffffffffffffffffffffffffffffffffffffffff1916145b9050919050565b606060028054610890906134bb565b80601f01602080910402602001604051908101604052809291908181526020018280546108bc906134bb565b80156109095780601f106108de57610100808354040283529160200191610909565b820191906000526020600020905b8154815290600101906020018083116108ec57829003601f168201915b5050505050905090565b600061091e82611ce3565b610954576040517fcf4700e400000000000000000000000000000000000000000000000000000000815260040160405180910390fd5b6006600083815260200190815260200160002060009054906101000a900473ffffffffffffffffffffffffffffffffffffffff169050919050565b6010805461099c906134bb565b80601f01602080910402602001604051908101604052809291908181526020018280546109c8906134bb565b8015610a155780601f106109ea57610100808354040283529160200191610a15565b820191906000526020600020905b8154815290600101906020018083116109f857829003601f168201915b505050505081565b6000610a2882611d42565b90508073ffffffffffffffffffffffffffffffffffffffff168373ffffffffffffffffffffffffffffffffffffffff161415610a90576040517f943f7b8c00000000000000000000000000000000000000000000000000000000815260040160405180910390fd5b8073ffffffffffffffffffffffffffffffffffffffff16610aaf611e10565b73ffffffffffffffffffffffffffffffffffffffff1614610b1257610adb81610ad6611e10565b611ac1565b610b11576040517fcfb3b94200000000000000000000000000000000000000000000000000000000815260040160405180910390fd5b5b826006600084815260200190815260200160002060006101000a81548173ffffffffffffffffffffffffffffffffffffffff021916908373ffffffffffffffffffffffffffffffffffffffff160217905550818373ffffffffffffffffffffffffffffffffffffffff168273ffffffffffffffffffffffffffffffffffffffff167f8c5be1e5ebec7d5bd14f71427d1e84f3dd0314c0f7b2291e5b200ac8c7c3b92560405160405180910390a4505050565b6000610bce611e18565b6001546000540303905090565b610be6838383611e21565b505050565b601160019054906101000a900460ff1681565b610c066121e9565b73ffffffffffffffffffffffffffffffffffffffff16610c24611175565b73ffffffffffffffffffffffffffffffffffffffff1614610c7a576040517f08c379a0000000000000000000000000000000000000000000000000000000008152600401610c719061317b565b60405180910390fd5b60026009541415610cc0576040517f08c379a0000000000000000000000000000000000000000000000000000000008152600401610cb79061323b565b60405180910390fd5b6002600981905550610cd0611175565b73ffffffffffffffffffffffffffffffffffffffff166108fc479081150290604051600060405180830381858888f19350505050158015610d15573d6000803e3d6000fd5b506001600981905550565b610d286121e9565b73ffffffffffffffffffffffffffffffffffffffff16610d46611175565b73ffffffffffffffffffffffffffffffffffffffff1614610d9c576040517f08c379a0000000000000000000000000000000000000000000000000000000008152600401610d939061317b565b60405180910390fd5b610da46121f1565b565b610dae6121e9565b73ffffffffffffffffffffffffffffffffffffffff16610dcc611175565b73ffffffffffffffffffffffffffffffffffffffff1614610e22576040517f08c379a0000000000000000000000000000000000000000000000000000000008152600401610e199061317b565b60405180910390fd5b601160019054906101000a900460ff1615601160016101000a81548160ff021916908315150217905550565b610e69838383604051806020016040528060008152506117cb565b505050565b601160009054906101000a900460ff1681565b610e896121e9565b73ffffffffffffffffffffffffffffffffffffffff16610ea7611175565b73ffffffffffffffffffffffffffffffffffffffff1614610efd576040517f08c379a0000000000000000000000000000000000000000000000000000000008152600401610ef49061317b565b60405180910390fd5b80600e9080519060200190610f13929190612917565b5050565b6000600a60009054906101000a900460ff16905090565b6000610f3982611d42565b9050919050565b600d5481565b600080610f5283612293565b1415610f8a576040517f8f4eb60400000000000000000000000000000000000000000000000000000000815260040160405180910390fd5b67ffffffffffffffff600560008473ffffffffffffffffffffffffffffffffffffffff1673ffffffffffffffffffffffffffffffffffffffff16815260200190815260200160002054169050919050565b610fe36121e9565b73ffffffffffffffffffffffffffffffffffffffff16611001611175565b73ffffffffffffffffffffffffffffffffffffffff1614611057576040517f08c379a000000000000000000000000000000000000000000000000000000000815260040161104e9061317b565b60405180910390fd5b611061600061229d565b565b600c5481565b6110716121e9565b73ffffffffffffffffffffffffffffffffffffffff1661108f611175565b73ffffffffffffffffffffffffffffffffffffffff16146110e5576040517f08c379a00000000000000000000000000000000000000000000000000000000081526004016110dc9061317b565b60405180910390fd5b80600c8190555050565b6110f76121e9565b73ffffffffffffffffffffffffffffffffffffffff16611115611175565b73ffffffffffffffffffffffffffffffffffffffff161461116b576040517f08c379a00000000000000000000000000000000000000000000000000000000081526004016111629061317b565b60405180910390fd5b611173612363565b565b6000600860009054906101000a900473ffffffffffffffffffffffffffffffffffffffff16905090565b6111a76121e9565b73ffffffffffffffffffffffffffffffffffffffff166111c5611175565b73ffffffffffffffffffffffffffffffffffffffff161461121b576040517f08c379a00000000000000000000000000000000000000000000000000000000081526004016112129061317b565b60405180910390fd5b80600d8190555050565b606060038054611234906134bb565b80601f0160208091040260200160405190810160405280929190818152602001828054611260906134bb565b80156112ad5780601f10611282576101008083540402835291602001916112ad565b820191906000526020600020905b81548152906001019060200180831161129057829003601f168201915b5050505050905090565b6112bf610f17565b156112ff576040517f08c379a00000000000000000000000000000000000000000000000000000000081526004016112f69061313b565b60405180910390fd5b3373ffffffffffffffffffffffffffffffffffffffff163273ffffffffffffffffffffffffffffffffffffffff161461136d576040517f08c379a0000000000000000000000000000000000000000000000000000000008152600401611364906131db565b60405180910390fd5b600260095414156113b3576040517f08c379a00000000000000000000000000000000000000000000000000000000081526004016113aa9061323b565b60405180910390fd5b6002600981905550601160019054906101000a900460ff1661140a576040517f08c379a00000000000000000000000000000000000000000000000000000000081526004016114019061321b565b60405180910390fd5b600d548161141891906133ab565b34101561145a576040517f08c379a0000000000000000000000000000000000000000000000000000000008152600401611451906131fb565b60405180910390fd5b600b5481611466610bc4565b6114709190613355565b11156114b1576040517f08c379a00000000000000000000000000000000000000000000000000000000081526004016114a89061315b565b60405180910390fd5b600c5481601260003373ffffffffffffffffffffffffffffffffffffffff1673ffffffffffffffffffffffffffffffffffffffff168152602001908152602001600020546114ff9190613355565b1115611540576040517f08c379a00000000000000000000000000000000000000000000000000000000081526004016115379061319b565b60405180910390fd5b80601260003373ffffffffffffffffffffffffffffffffffffffff1673ffffffffffffffffffffffffffffffffffffffff168152602001908152602001600020600082825461158f9190613355565b925050819055506115a03382612406565b600160098190555050565b6115b3611e10565b73ffffffffffffffffffffffffffffffffffffffff168273ffffffffffffffffffffffffffffffffffffffff161415611618576040517fb06307db00000000000000000000000000000000000000000000000000000000815260040160405180910390fd5b8060076000611625611e10565b73ffffffffffffffffffffffffffffffffffffffff1673ffffffffffffffffffffffffffffffffffffffff16815260200190815260200160002060008473ffffffffffffffffffffffffffffffffffffffff1673ffffffffffffffffffffffffffffffffffffffff16815260200190815260200160002060006101000a81548160ff0219169083151502179055508173ffffffffffffffffffffffffffffffffffffffff166116d2611e10565b73ffffffffffffffffffffffffffffffffffffffff167f17307eab39ab6107e8899845ad3d59bd9653f200f220920489ca2b5937696c318360405161171791906130be565b60405180910390a35050565b61172b6121e9565b73ffffffffffffffffffffffffffffffffffffffff16611749611175565b73ffffffffffffffffffffffffffffffffffffffff161461179f576040517f08c379a00000000000000000000000000000000000000000000000000000000081526004016117969061317b565b60405180910390fd5b601160009054906101000a900460ff1615601160006101000a81548160ff021916908315150217905550565b6117d6848484611e21565b60008373ffffffffffffffffffffffffffffffffffffffff163b146118385761180184848484612424565b611837576040517fd1a57ed600000000000000000000000000000000000000000000000000000000815260040160405180910390fd5b5b50505050565b600f805461184b906134bb565b80601f0160208091040260200160405190810160405280929190818152602001828054611877906134bb565b80156118c45780601f10611899576101008083540402835291602001916118c4565b820191906000526020600020905b8154815290600101906020018083116118a757829003601f168201915b505050505081565b60606118d782611ce3565b611916576040517f08c379a000000000000000000000000000000000000000000000000000000000815260040161190d906131bb565b60405180910390fd5b60001515601160009054906101000a900460ff16151514156119c4576010805461193f906134bb565b80601f016020809104026020016040519081016040528092919081815260200182805461196b906134bb565b80156119b85780601f1061198d576101008083540402835291602001916119b8565b820191906000526020600020905b81548152906001019060200180831161199b57829003601f168201915b50505050509050611a20565b60006119ce612584565b905060008151116119ee5760405180602001604052806000815250611a1c565b806119f884612616565b600f604051602001611a0c93929190613026565b6040516020818303038152906040525b9150505b919050565b600b5481565b611a336121e9565b73ffffffffffffffffffffffffffffffffffffffff16611a51611175565b73ffffffffffffffffffffffffffffffffffffffff1614611aa7576040517f08c379a0000000000000000000000000000000000000000000000000000000008152600401611a9e9061317b565b60405180910390fd5b80600f9080519060200190611abd929190612917565b5050565b6000600760008473ffffffffffffffffffffffffffffffffffffffff1673ffffffffffffffffffffffffffffffffffffffff16815260200190815260200160002060008373ffffffffffffffffffffffffffffffffffffffff1673ffffffffffffffffffffffffffffffffffffffff16815260200190815260200160002060009054906101000a900460ff16905092915050565b611b5d6121e9565b73ffffffffffffffffffffffffffffffffffffffff16611b7b611175565b73ffffffffffffffffffffffffffffffffffffffff1614611bd1576040517f08c379a0000000000000000000000000000000000000000000000000000000008152600401611bc89061317b565b60405180910390fd5b8060109080519060200190611be7929190612917565b5050565b611bf36121e9565b73ffffffffffffffffffffffffffffffffffffffff16611c11611175565b73ffffffffffffffffffffffffffffffffffffffff1614611c67576040517f08c379a0000000000000000000000000000000000000000000000000000000008152600401611c5e9061317b565b60405180910390fd5b600073ffffffffffffffffffffffffffffffffffffffff168173ffffffffffffffffffffffffffffffffffffffff161415611cd7576040517f08c379a0000000000000000000000000000000000000000000000000000000008152600401611cce9061311b565b60405180910390fd5b611ce08161229d565b50565b600081611cee611e18565b11158015611cfd575060005482105b8015611d3b575060007c0100000000000000000000000000000000000000000000000000000000600460008581526020019081526020016000205416145b9050919050565b60008082905080611d51611e18565b11611dd957600054811015611dd85760006004600083815260200190815260200160002054905060007c010000000000000000000000000000000000000000000000000000000082161415611dd6575b6000811415611dcc576004600083600190039350838152602001908152602001600020549050611da1565b8092505050611e0b565b505b5b6040517fdf2d9b4200000000000000000000000000000000000000000000000000000000815260040160405180910390fd5b919050565b600033905090565b60006001905090565b6000611e2c82611d42565b90508373ffffffffffffffffffffffffffffffffffffffff168173ffffffffffffffffffffffffffffffffffffffff1614611e93576040517fa114810000000000000000000000000000000000000000000000000000000000815260040160405180910390fd5b60006006600084815260200190815260200160002060009054906101000a900473ffffffffffffffffffffffffffffffffffffffff16905060008573ffffffffffffffffffffffffffffffffffffffff16611eec611e10565b73ffffffffffffffffffffffffffffffffffffffff161480611f1b5750611f1a86611f15611e10565b611ac1565b5b80611f585750611f29611e10565b73ffffffffffffffffffffffffffffffffffffffff168273ffffffffffffffffffffffffffffffffffffffff16145b905080611f91576040517f59c896be00000000000000000000000000000000000000000000000000000000815260040160405180910390fd5b6000611f9c86612293565b1415611fd4576040517fea553b3400000000000000000000000000000000000000000000000000000000815260040160405180910390fd5b611fe18686866001612670565b6000611fec83612293565b14612028576006600085815260200190815260200160002060006101000a81549073ffffffffffffffffffffffffffffffffffffffff02191690555b600560008773ffffffffffffffffffffffffffffffffffffffff1673ffffffffffffffffffffffffffffffffffffffff168152602001908152602001600020600081546001900391905081905550600560008673ffffffffffffffffffffffffffffffffffffffff1673ffffffffffffffffffffffffffffffffffffffff16815260200190815260200160002060008154600101919050819055507c020000000000000000000000000000000000000000000000000000000060a042901b6120ef87612293565b1717600460008681526020019081526020016000208190555060007c020000000000000000000000000000000000000000000000000000000084161415612179576000600185019050600060046000838152602001908152602001600020541415612177576000548114612176578360046000838152602001908152602001600020819055505b5b505b838573ffffffffffffffffffffffffffffffffffffffff168773ffffffffffffffffffffffffffffffffffffffff167fddf252ad1be2c89b69c2b068fc378daa952ba7f163c4a11628f55a4df523b3ef60405160405180910390a46121e18686866001612676565b505050505050565b600033905090565b6121f9610f17565b612238576040517f08c379a000000000000000000000000000000000000000000000000000000000815260040161222f906130fb565b60405180910390fd5b6000600a60006101000a81548160ff0219169083151502179055507f5db9ee0a495bf2e6ff9c91a7834c1ba4fdd244a5e8aa4e537bd38aeae4b073aa61227c6121e9565b6040516122899190613057565b60405180910390a1565b6000819050919050565b6000600860009054906101000a900473ffffffffffffffffffffffffffffffffffffffff16905081600860006101000a81548173ffffffffffffffffffffffffffffffffffffffff021916908373ffffffffffffffffffffffffffffffffffffffff1602179055508173ffffffffffffffffffffffffffffffffffffffff168173ffffffffffffffffffffffffffffffffffffffff167f8be0079c531659141344cd1fd0a4f28419497f9722a3daafe3b4186f6b6457e060405160405180910390a35050565b61236b610f17565b156123ab576040517f08c379a00000000000000000000000000000000000000000000000000000000081526004016123a29061313b565b60405180910390fd5b6001600a60006101000a81548160ff0219169083151502179055507f62e78cea01bee320cd4e420270b5ea74000d11b0c9f74754ebdbfc544b05a2586123ef6121e9565b6040516123fc9190613057565b60405180910390a1565b61242082826040518060200160405280600081525061267c565b5050565b60008373ffffffffffffffffffffffffffffffffffffffff1663150b7a0261244a611e10565b8786866040518563ffffffff1660e01b815260040161246c9493929190613072565b602060405180830381600087803b15801561248657600080fd5b505af19250505080156124b757506040513d601f19601f820116820180604052508101906124b49190612cc3565b60015b612531573d80600081146124e7576040519150601f19603f3d011682016040523d82523d6000602084013e6124ec565b606091505b50600081511415612529576040517fd1a57ed600000000000000000000000000000000000000000000000000000000815260040160405180910390fd5b805181602001fd5b63150b7a0260e01b7bffffffffffffffffffffffffffffffffffffffffffffffffffffffff1916817bffffffffffffffffffffffffffffffffffffffffffffffffffffffff191614915050949350505050565b6060600e8054612593906134bb565b80601f01602080910402602001604051908101604052809291908181526020018280546125bf906134bb565b801561260c5780601f106125e15761010080835404028352916020019161260c565b820191906000526020600020905b8154815290600101906020018083116125ef57829003601f168201915b5050505050905090565b60606080604051019050806040528082600183039250600a81066030018353600a810490505b801561265c57600183039250600a81066030018353600a8104905061263c565b508181036020830392508083525050919050565b50505050565b50505050565b600080549050600061268d85612293565b14156126c5576040517f2e07630000000000000000000000000000000000000000000000000000000000815260040160405180910390fd5b6000831415612700576040517fb562e8dd00000000000000000000000000000000000000000000000000000000815260040160405180910390fd5b61270d6000858386612670565b600160406001901b178302600560008673ffffffffffffffffffffffffffffffffffffffff1673ffffffffffffffffffffffffffffffffffffffff1681526020019081526020016000206000828254019250508190555060e16127726001851461290d565b901b60a042901b61278286612293565b1717600460008381526020019081526020016000208190555060008190506000848201905060008673ffffffffffffffffffffffffffffffffffffffff163b14612886575b818673ffffffffffffffffffffffffffffffffffffffff16600073ffffffffffffffffffffffffffffffffffffffff167fddf252ad1be2c89b69c2b068fc378daa952ba7f163c4a11628f55a4df523b3ef60405160405180910390a46128366000878480600101955087612424565b61286c576040517fd1a57ed600000000000000000000000000000000000000000000000000000000815260040160405180910390fd5b8082106127c757826000541461288157600080fd5b6128f1565b5b818060010192508673ffffffffffffffffffffffffffffffffffffffff16600073ffffffffffffffffffffffffffffffffffffffff167fddf252ad1be2c89b69c2b068fc378daa952ba7f163c4a11628f55a4df523b3ef60405160405180910390a4808210612887575b8160008190555050506129076000858386612676565b50505050565b6000819050919050565b828054612923906134bb565b90600052602060002090601f016020900481019282612945576000855561298c565b82601f1061295e57805160ff191683800117855561298c565b8280016001018555821561298c579182015b8281111561298b578251825591602001919060010190612970565b5b509050612999919061299d565b5090565b5b808211156129b657600081600090555060010161299e565b5090565b60006129cd6129c88461329b565b613276565b9050828152602081018484840111156129e557600080fd5b6129f0848285613479565b509392505050565b6000612a0b612a06846132cc565b613276565b905082815260208101848484011115612a2357600080fd5b612a2e848285613479565b509392505050565b600081359050612a4581613817565b92915050565b600081359050612a5a8161382e565b92915050565b600081359050612a6f81613845565b92915050565b600081519050612a8481613845565b92915050565b600082601f830112612a9b57600080fd5b8135612aab8482602086016129ba565b91505092915050565b600082601f830112612ac557600080fd5b8135612ad58482602086016129f8565b91505092915050565b600081359050612aed8161385c565b92915050565b600060208284031215612b0557600080fd5b6000612b1384828501612a36565b91505092915050565b60008060408385031215612b2f57600080fd5b6000612b3d85828601612a36565b9250506020612b4e85828601612a36565b9150509250929050565b600080600060608486031215612b6d57600080fd5b6000612b7b86828701612a36565b9350506020612b8c86828701612a36565b9250506040612b9d86828701612ade565b9150509250925092565b60008060008060808587031215612bbd57600080fd5b6000612bcb87828801612a36565b9450506020612bdc87828801612a36565b9350506040612bed87828801612ade565b925050606085013567ffffffffffffffff811115612c0a57600080fd5b612c1687828801612a8a565b91505092959194509250565b60008060408385031215612c3557600080fd5b6000612c4385828601612a36565b9250506020612c5485828601612a4b565b9150509250929050565b60008060408385031215612c7157600080fd5b6000612c7f85828601612a36565b9250506020612c9085828601612ade565b9150509250929050565b600060208284031215612cac57600080fd5b6000612cba84828501612a60565b91505092915050565b600060208284031215612cd557600080fd5b6000612ce384828501612a75565b91505092915050565b600060208284031215612cfe57600080fd5b600082013567ffffffffffffffff811115612d1857600080fd5b612d2484828501612ab4565b91505092915050565b600060208284031215612d3f57600080fd5b6000612d4d84828501612ade565b91505092915050565b612d5f81613405565b82525050565b612d6e81613417565b82525050565b6000612d7f82613312565b612d898185613328565b9350612d99818560208601613488565b612da2816135ab565b840191505092915050565b6000612db88261331d565b612dc28185613339565b9350612dd2818560208601613488565b612ddb816135ab565b840191505092915050565b6000612df18261331d565b612dfb818561334a565b9350612e0b818560208601613488565b80840191505092915050565b60008154612e24816134bb565b612e2e818661334a565b94506001821660008114612e495760018114612e5a57612e8d565b60ff19831686528186019350612e8d565b612e63856132fd565b60005b83811015612e8557815481890152600182019150602081019050612e66565b838801955050505b50505092915050565b6000612ea3601483613339565b9150612eae826135bc565b602082019050919050565b6000612ec6602683613339565b9150612ed1826135e5565b604082019050919050565b6000612ee9601083613339565b9150612ef482613634565b602082019050919050565b6000612f0c601a83613339565b9150612f178261365d565b602082019050919050565b6000612f2f602083613339565b9150612f3a82613686565b602082019050919050565b6000612f52602783613339565b9150612f5d826136af565b604082019050919050565b6000612f75602f83613339565b9150612f80826136fe565b604082019050919050565b6000612f98602b83613339565b9150612fa38261374d565b604082019050919050565b6000612fbb601583613339565b9150612fc68261379c565b602082019050919050565b6000612fde601f83613339565b9150612fe9826137c5565b602082019050919050565b6000613001601f83613339565b915061300c826137ee565b602082019050919050565b6130208161346f565b82525050565b60006130328286612de6565b915061303e8285612de6565b915061304a8284612e17565b9150819050949350505050565b600060208201905061306c6000830184612d56565b92915050565b60006080820190506130876000830187612d56565b6130946020830186612d56565b6130a16040830185613017565b81810360608301526130b38184612d74565b905095945050505050565b60006020820190506130d36000830184612d65565b92915050565b600060208201905081810360008301526130f38184612dad565b905092915050565b6000602082019050818103600083015261311481612e96565b9050919050565b6000602082019050818103600083015261313481612eb9565b9050919050565b6000602082019050818103600083015261315481612edc565b9050919050565b6000602082019050818103600083015261317481612eff565b9050919050565b6000602082019050818103600083015261319481612f22565b9050919050565b600060208201905081810360008301526131b481612f45565b9050919050565b600060208201905081810360008301526131d481612f68565b9050919050565b600060208201905081810360008301526131f481612f8b565b9050919050565b6000602082019050818103600083015261321481612fae565b9050919050565b6000602082019050818103600083015261323481612fd1565b9050919050565b6000602082019050818103600083015261325481612ff4565b9050919050565b60006020820190506132706000830184613017565b92915050565b6000613280613291565b905061328c82826134ed565b919050565b6000604051905090565b600067ffffffffffffffff8211156132b6576132b561357c565b5b6132bf826135ab565b9050602081019050919050565b600067ffffffffffffffff8211156132e7576132e661357c565b5b6132f0826135ab565b9050602081019050919050565b60008190508160005260206000209050919050565b600081519050919050565b600081519050919050565b600082825260208201905092915050565b600082825260208201905092915050565b600081905092915050565b60006133608261346f565b915061336b8361346f565b9250827fffffffffffffffffffffffffffffffffffffffffffffffffffffffffffffffff038211156133a05761339f61351e565b5b828201905092915050565b60006133b68261346f565b91506133c18361346f565b9250817fffffffffffffffffffffffffffffffffffffffffffffffffffffffffffffffff04831182151516156133fa576133f961351e565b5b828202905092915050565b60006134108261344f565b9050919050565b60008115159050919050565b60007fffffffff0000000000000000000000000000000000000000000000000000000082169050919050565b600073ffffffffffffffffffffffffffffffffffffffff82169050919050565b6000819050919050565b82818337600083830152505050565b60005b838110156134a657808201518184015260208101905061348b565b838111156134b5576000848401525b50505050565b600060028204905060018216806134d357607f821691505b602082108114156134e7576134e661354d565b5b50919050565b6134f6826135ab565b810181811067ffffffffffffffff821117156135155761351461357c565b5b80604052505050565b7f4e487b7100000000000000000000000000000000000000000000000000000000600052601160045260246000fd5b7f4e487b7100000000000000000000000000000000000000000000000000000000600052602260045260246000fd5b7f4e487b7100000000000000000000000000000000000000000000000000000000600052604160045260246000fd5b6000601f19601f8301169050919050565b7f5061757361626c653a206e6f7420706175736564000000000000000000000000600082015250565b7f4f776e61626c653a206e6577206f776e657220697320746865207a65726f206160008201527f6464726573730000000000000000000000000000000000000000000000000000602082015250565b7f5061757361626c653a2070617573656400000000000000000000000000000000600082015250565b7f4572726f723a206f76657220746865206d617820737570706c79000000000000600082015250565b7f4f776e61626c653a2063616c6c6572206973206e6f7420746865206f776e6572600082015250565b7f4572726f723a2043616e6e6f74206d696e74206d6f7265207468616e2070756260008201527f6c6963206d617800000000000000000000000000000000000000000000000000602082015250565b7f4552433732314d657461646174613a2055524920717565727920666f72206e6f60008201527f6e6578697374656e7420746f6b656e0000000000000000000000000000000000602082015250565b7f4572726f723a2043616e6e6f742062652063616c6c656420627920616e6f746860008201527f657220636f6e7472616374000000000000000000000000000000000000000000602082015250565b7f4e6f7420656e6f7567682065746865722073656e740000000000000000000000600082015250565b7f5075626c6963206d696e742069732063757272656e746c792070617573656400600082015250565b7f5265656e7472616e637947756172643a207265656e7472616e742063616c6c00600082015250565b61382081613405565b811461382b57600080fd5b50565b61383781613417565b811461384257600080fd5b50565b61384e81613423565b811461385957600080fd5b50565b6138658161346f565b811461387057600080fd5b5056fea26469706673582212206c61e9006d09351d6d2e38bf3c93346c3e20df31cfc140227a5a0f466d4cd6fa64736f6c63430008040033",
  "linkReferences": {},
  "deployedLinkReferences": {}
}